{
  "contractName": "Connect6",
  "abi": [
    {
      "constant": true,
      "inputs": [
        {
          "name": "",
          "type": "uint256"
        }
      ],
      "name": "games",
      "outputs": [
        {
          "name": "turn",
          "type": "uint8"
        },
        {
          "name": "winner",
          "type": "uint8"
        },
        {
          "name": "time_per_move",
          "type": "uint256"
        },
        {
          "name": "deadline",
          "type": "uint256"
        },
        {
          "name": "player_1_stake",
          "type": "uint256"
        },
        {
          "name": "player_2_stake",
          "type": "uint256"
        }
      ],
      "payable": false,
      "stateMutability": "view",
      "type": "function"
    },
    {
      "constant": true,
      "inputs": [],
      "name": "board_size",
      "outputs": [
        {
          "name": "",
          "type": "uint8"
        }
      ],
      "payable": false,
      "stateMutability": "view",
      "type": "function"
    },
    {
      "anonymous": false,
      "inputs": [
        {
          "indexed": false,
          "name": "game_num",
          "type": "uint256"
        }
      ],
      "name": "LogGameCreated",
      "type": "event"
    },
    {
      "anonymous": false,
      "inputs": [
        {
          "indexed": false,
          "name": "game_num",
          "type": "uint256"
        }
      ],
      "name": "LogGameStarted",
      "type": "event"
    },
    {
      "anonymous": false,
      "inputs": [
        {
          "indexed": false,
          "name": "game_num",
          "type": "uint256"
        },
        {
          "indexed": false,
          "name": "winner",
          "type": "uint8"
        }
      ],
      "name": "LogVictory",
      "type": "event"
    },
    {
      "anonymous": false,
      "inputs": [
        {
          "indexed": false,
          "name": "game_num",
          "type": "uint256"
        },
        {
          "indexed": false,
          "name": "x1",
          "type": "uint8"
        },
        {
          "indexed": false,
          "name": "y1",
          "type": "uint8"
        },
        {
          "indexed": false,
          "name": "x2",
          "type": "uint8"
        },
        {
          "indexed": false,
          "name": "y2",
          "type": "uint8"
        }
      ],
      "name": "LogMoveMade",
      "type": "event"
    },
    {
      "constant": false,
      "inputs": [
        {
          "name": "_time_per_move",
          "type": "uint256"
        },
        {
          "name": "opponent_stake",
          "type": "uint256"
        }
      ],
      "name": "new_game",
      "outputs": [],
      "payable": true,
      "stateMutability": "payable",
      "type": "function"
    },
    {
      "constant": false,
      "inputs": [
        {
          "name": "game_num",
          "type": "uint256"
        }
      ],
      "name": "join_game",
      "outputs": [],
      "payable": true,
      "stateMutability": "payable",
      "type": "function"
    },
    {
      "constant": false,
      "inputs": [
        {
          "name": "game_num",
          "type": "uint256"
        },
        {
          "name": "x1",
          "type": "uint8"
        },
        {
          "name": "y1",
          "type": "uint8"
        },
        {
          "name": "x2",
          "type": "uint8"
        },
        {
          "name": "y2",
          "type": "uint8"
        }
      ],
      "name": "make_move",
      "outputs": [],
      "payable": true,
      "stateMutability": "payable",
      "type": "function"
    },
    {
      "constant": true,
      "inputs": [
        {
          "name": "game_num",
          "type": "uint256"
        }
      ],
      "name": "fullBoard",
      "outputs": [
        {
          "name": "flattendBoard",
          "type": "uint8[361]"
        }
      ],
      "payable": false,
      "stateMutability": "view",
      "type": "function"
    },
    {
      "constant": true,
      "inputs": [
        {
          "name": "game_num",
          "type": "uint256"
        },
        {
          "name": "x",
          "type": "uint8"
        },
        {
          "name": "y",
          "type": "uint8"
        }
      ],
      "name": "board",
      "outputs": [
        {
          "name": "",
          "type": "uint8"
        }
      ],
      "payable": false,
      "stateMutability": "view",
      "type": "function"
    }
  ],
  "bytecode": "0x608060405234801561001057600080fd5b50610ccc806100206000396000f3fe60806040526004361061006f5760003560e01c806372becc631161004e57806372becc631461018f578063a35cfa2214610207578063d9e7ee1c14610269578063e0cd6eff146102a15761006f565b8062601d6c14610074578063117a5b90146100e35780634a7b26ec14610161575b600080fd5b34801561008057600080fd5b506100c76004803603606081101561009757600080fd5b8101908080359060200190929190803560ff169060200190929190803560ff1690602001909291905050506102d2565b604051808260ff1660ff16815260200191505060405180910390f35b3480156100ef57600080fd5b5061011c6004803603602081101561010657600080fd5b8101908080359060200190929190505050610336565b604051808760ff1660ff1681526020018660ff1660ff168152602001858152602001848152602001838152602001828152602001965050505050505060405180910390f35b61018d6004803603602081101561017757600080fd5b8101908080359060200190929190505050610399565b005b34801561019b57600080fd5b506101c8600480360360208110156101b257600080fd5b810190808035906020019092919050505061050a565b604051808261016960200280838360005b838110156101f45780820151818401526020810190506101d9565b5050505090500191505060405180910390f35b610267600480360360a081101561021d57600080fd5b8101908080359060200190929190803560ff169060200190929190803560ff169060200190929190803560ff169060200190929190803560ff1690602001909291905050506105eb565b005b61029f6004803603604081101561027f57600080fd5b8101908080359060200190929190803590602001909291905050506108a0565b005b3480156102ad57600080fd5b506102b66109f2565b604051808260ff1660ff16815260200191505060405180910390f35b60008084815481106102e057fe5b906000526020600020906009020160000160008460ff1660ff16815260200190815260200160002060008360ff1660ff16815260200190815260200160002060009054906101000a900460ff1690509392505050565b6000818154811061034357fe5b90600052602060002090600902016000915090508060040160009054906101000a900460ff16908060040160019054906101000a900460ff16908060050154908060060154908060070154908060080154905086565b60008082815481106103a757fe5b9060005260206000209060090201905060008160040160009054906101000a900460ff1660ff161415806103df575034816008015414155b15610452576040517f08c379a000000000000000000000000000000000000000000000000000000000815260040180806020018281038252601a8152602001807f4e6f7420656e6f7567682045746865722070726f76696465642e00000000000081525060200191505060405180910390fd5b338160010160026003811061046357fe5b0160006101000a81548173ffffffffffffffffffffffffffffffffffffffff021916908373ffffffffffffffffffffffffffffffffffffffff16021790555060028160040160006101000a81548160ff021916908360ff1602179055508060050154420181600601819055507fa7c1a70843ae25305c2e9932b44a5ea7f136f91eef037889721acd158796dbc3826040518082815260200191505060405180910390a15050565b610512610bbd565b600080838154811061052057fe5b90600052602060002090600902019050600080905060008090505b601360ff168160ff1610156105e35760008090505b601360ff168160ff1610156105d5578360000160008260ff1660ff16815260200190815260200160002060008360ff1660ff16815260200190815260200160002060009054906101000a900460ff16858460ff1661016981106105af57fe5b602002019060ff16908160ff168152505082806001019350508080600101915050610550565b50808060010191505061053b565b505050919050565b60008086815481106105f957fe5b90600052602060002090600902019050806001018160040160009054906101000a900460ff1660ff166003811061062c57fe5b0160009054906101000a900473ffffffffffffffffffffffffffffffffffffffff1673ffffffffffffffffffffffffffffffffffffffff163373ffffffffffffffffffffffffffffffffffffffff16146106ee576040517f08c379a00000000000000000000000000000000000000000000000000000000081526004018080602001828103825260118152602001807f67616d65206861732066696e697368656400000000000000000000000000000081525060200191505060405180910390fd5b806001018160040160009054906101000a900460ff1660ff166003811061071157fe5b0160009054906101000a900473ffffffffffffffffffffffffffffffffffffffff1673ffffffffffffffffffffffffffffffffffffffff163373ffffffffffffffffffffffffffffffffffffffff16146107d3576040517f08c379a00000000000000000000000000000000000000000000000000000000081526004018080602001828103825260108152602001807f6973206e6f7420796f7572207475726e0000000000000000000000000000000081525060200191505060405180910390fd5b6107de8686866109f7565b6107e98684846109f7565b8060040160009054906101000a900460ff166003038160040160006101000a81548160ff021916908360ff1602179055508060050154420181600601819055507ffd9177b5d9e465f56cc8079919bc8a734a3b74ec3de3de9340904e23c903d82c8686868686604051808681526020018560ff1660ff1681526020018460ff1660ff1681526020018360ff1660ff1681526020018260ff1660ff1681526020019550505050505060405180910390a1505050505050565b600080548091906001016108b49190610be1565b50600080600160008054905003815481106108cb57fe5b9060005260206000209060090201905033816001016001600381106108ec57fe5b0160006101000a81548173ffffffffffffffffffffffffffffffffffffffff021916908373ffffffffffffffffffffffffffffffffffffffff16021790555082816005018190555034816007018190555081816008018190555060018160000160006002601360ff168161095c57fe5b0460ff1660ff16815260200190815260200160002060006002601360ff168161098157fe5b0460ff1660ff16815260200190815260200160002060006101000a81548160ff021916908360ff1602179055507fa4bb252efaaa14c454d60c7f572e2ce4cf91a188db9122e78072b05290af7cb36001600080549050036040518082815260200191505060405180910390a1505050565b601381565b601360ff168260ff161180610a125750601360ff168160ff16115b15610a85576040517f08c379a00000000000000000000000000000000000000000000000000000000081526004018080602001828103825260208152602001807f506c6163696e6720646f74206f757473696465206f662074686520626f61726481525060200191505060405180910390fd5b6000808481548110610a9357fe5b9060005260206000209060090201905060008160000160008560ff1660ff16815260200190815260200160002060008460ff1660ff16815260200190815260200160002060009054906101000a900460ff1660ff1614610b5b576040517f08c379a00000000000000000000000000000000000000000000000000000000081526004018080602001828103825260168152602001807f506f736974696f6e20616c72656164792074616b656e0000000000000000000081525060200191505060405180910390fd5b8060040160009054906101000a900460ff168160000160008560ff1660ff16815260200190815260200160002060008460ff1660ff16815260200190815260200160002060006101000a81548160ff021916908360ff16021790555050505050565b60405180612d20016040528061016990602082028038833980820191505090505090565b815481835581811115610c0e57600902816009028360005260206000209182019101610c0d9190610c13565b5b505050565b610c8891905b80821115610c84576000600182016000610c339190610c8b565b6004820160006101000a81549060ff02191690556004820160016101000a81549060ff0219169055600582016000905560068201600090556007820160009055600882016000905550600901610c19565b5090565b90565b5060008155600101600081556001016000905556fea165627a7a723058204f17c7a13c472495335d17ccfb573fa9c94fc5e14752088b01bdcd3e3560c4290029",
  "source": "pragma solidity ^0.5.0;\ncontract Connect6 {\n\n  uint8 constant public board_size = 19;\n\n  Game[] public games;\n\n  struct Game {\n      mapping(uint8 => mapping(uint8 => uint8)) board;\n      address[3] players;\n      // 0 means game did not start yet\n      uint8 turn;\n      // Either 1 or 2. 0 means not finished\n      uint8 winner;\n      // true if players agreed to a draw\n      uint time_per_move;\n      // if move is not made by this time, opponent can claim victory\n      uint deadline;\n      // amount player 1 put in\n      uint player_1_stake;\n      // amount player 2 must send to join\n      uint player_2_stake;\n  }\n\n  event LogGameCreated(uint game_num);\n  event LogGameStarted(uint game_num);\n  event LogVictory(uint game_num, uint8 winner);\n  event LogMoveMade(uint game_num, uint8 x1, uint8 y1, uint8 x2, uint8 y2);\n\n  function new_game(uint _time_per_move, uint opponent_stake) public payable {\n    games.length++;\n    Game storage g = games[games.length - 1];\n    g.players[1] = msg.sender;\n    g.time_per_move = _time_per_move;\n    g.player_1_stake = msg.value;\n    g.player_2_stake = opponent_stake;\n    // make the first move in the center of the board\n    g.board[board_size / 2][board_size / 2] = 1;\n    emit LogGameCreated(games.length - 1);\n  }\n  \n  function join_game(uint game_num) public payable {\n    Game storage g = games[game_num];\n    if (g.turn != 0 || g.player_2_stake != msg.value) {\n      revert(\"Not enough Ether provided.\");\n    }\n    g.players[2] = msg.sender;\n    // It's the second player's turn because the first player automatically makes a single move in the center\n    g.turn = 2;\n    g.deadline = now + g.time_per_move;\n    emit LogGameStarted(game_num);\n  }\n\n  function single_move(uint game_num, uint8 x, uint8 y) internal {\n    if (x > board_size || y > board_size) {\n      revert(\"Placing dot outside of the board\");\n    }\n    Game storage g = games[game_num];\n    if (g.board[x][y] != 0) {\n      revert(\"Position already taken\");\n    }\n    g.board[x][y] = g.turn;\n  }\n\n  function make_move(uint game_num, uint8 x1, uint8 y1, uint8 x2, uint8 y2) public payable {\n    Game storage g = games[game_num];\n    if (msg.sender != g.players[g.turn]) {\n      revert(\"game has finished\");\n    }\n    if (msg.sender != g.players[g.turn]) {\n      revert(\"is not your turn\");\n    }\n    single_move(game_num, x1, y1);\n    single_move(game_num, x2, y2);\n    g.turn = 3 - g.turn;\n    g.deadline = now + g.time_per_move;\n    emit LogMoveMade(game_num, x1, y1, x2, y2);\n  }\n\nfunction fullBoard(uint game_num) public view returns (uint8[361] memory flattendBoard) {\n  //19*19=361\n  Game storage g = games[game_num];\n  uint8 boardIndex = 0;\n  for (uint8 i = 0; i < board_size; i++) {\n    for (uint8 j = 0; j < board_size; j++) {\n      flattendBoard[boardIndex] = g.board[j][i];\n      boardIndex++;\n    }\n  }\n} \nfunction board(uint game_num, uint8 x, uint8 y) public view returns (uint8) {\n    return games[game_num].board[x][y];\n  }\n}",
  "sourcePath": "/nc/dev/dojo-dapp-connect6/contracts/Connect6.sol",
  "compiler": {
    "name": "solc",
    "version": "0.5.8+commit.23d335f2.Emscripten.clang"
  },
  "schemaVersion": "3.0.16",
  "updatedAt": "2019-11-06T16:19:45.477Z",
  "devdoc": {
    "methods": {}
  },
  "userdoc": {
    "methods": {}
  }
}