{
  "contractName": "Connect6",
  "abi": [
    {
      "constant": true,
      "inputs": [
        {
          "name": "",
          "type": "uint256"
        }
      ],
      "name": "games",
      "outputs": [
        {
          "name": "turn",
          "type": "uint8"
        },
        {
          "name": "winner",
          "type": "uint8"
        },
        {
          "name": "time_per_move",
          "type": "uint256"
        },
        {
          "name": "deadline",
          "type": "uint256"
        },
        {
          "name": "player_1_stake",
          "type": "uint256"
        },
        {
          "name": "player_2_stake",
          "type": "uint256"
        }
      ],
      "payable": false,
      "stateMutability": "view",
      "type": "function"
    },
    {
      "constant": true,
      "inputs": [],
      "name": "board_size",
      "outputs": [
        {
          "name": "",
          "type": "uint8"
        }
      ],
      "payable": false,
      "stateMutability": "view",
      "type": "function"
    },
    {
      "anonymous": false,
      "inputs": [
        {
          "indexed": false,
          "name": "game_num",
          "type": "uint256"
        }
      ],
      "name": "LogGameCreated",
      "type": "event"
    },
    {
      "anonymous": false,
      "inputs": [
        {
          "indexed": false,
          "name": "game_num",
          "type": "uint256"
        }
      ],
      "name": "LogGameStarted",
      "type": "event"
    },
    {
      "anonymous": false,
      "inputs": [
        {
          "indexed": false,
          "name": "game_num",
          "type": "uint256"
        },
        {
          "indexed": false,
          "name": "winner",
          "type": "uint8"
        }
      ],
      "name": "LogVictory",
      "type": "event"
    },
    {
      "anonymous": false,
      "inputs": [
        {
          "indexed": false,
          "name": "game_num",
          "type": "uint256"
        },
        {
          "indexed": false,
          "name": "x1",
          "type": "uint8"
        },
        {
          "indexed": false,
          "name": "y1",
          "type": "uint8"
        },
        {
          "indexed": false,
          "name": "x2",
          "type": "uint8"
        },
        {
          "indexed": false,
          "name": "y2",
          "type": "uint8"
        }
      ],
      "name": "LogMoveMade",
      "type": "event"
    },
    {
      "constant": false,
      "inputs": [
        {
          "name": "_time_per_move",
          "type": "uint256"
        },
        {
          "name": "opponent_stake",
          "type": "uint256"
        }
      ],
      "name": "new_game",
      "outputs": [],
      "payable": true,
      "stateMutability": "payable",
      "type": "function"
    },
    {
      "constant": false,
      "inputs": [
        {
          "name": "game_num",
          "type": "uint256"
        }
      ],
      "name": "join_game",
      "outputs": [],
      "payable": true,
      "stateMutability": "payable",
      "type": "function"
    },
    {
      "constant": true,
      "inputs": [
        {
          "name": "game_num",
          "type": "uint256"
        },
        {
          "name": "x",
          "type": "uint8"
        },
        {
          "name": "y",
          "type": "uint8"
        }
      ],
      "name": "board",
      "outputs": [
        {
          "name": "",
          "type": "uint8"
        }
      ],
      "payable": false,
      "stateMutability": "view",
      "type": "function"
    }
  ],
  "bytecode": "0x608060405234801561001057600080fd5b506106a9806100206000396000f3fe6080604052600436106100495760003560e01c8062601d6c1461004e578063117a5b90146100bd5780634a7b26ec1461013b578063d9e7ee1c14610169578063e0cd6eff146101a1575b600080fd5b34801561005a57600080fd5b506100a16004803603606081101561007157600080fd5b8101908080359060200190929190803560ff169060200190929190803560ff1690602001909291905050506101d2565b604051808260ff1660ff16815260200191505060405180910390f35b3480156100c957600080fd5b506100f6600480360360208110156100e057600080fd5b8101908080359060200190929190505050610236565b604051808760ff1660ff1681526020018660ff1660ff168152602001858152602001848152602001838152602001828152602001965050505050505060405180910390f35b6101676004803603602081101561015157600080fd5b8101908080359060200190929190505050610299565b005b61019f6004803603604081101561017f57600080fd5b81019080803590602001909291908035906020019092919050505061040a565b005b3480156101ad57600080fd5b506101b661055c565b604051808260ff1660ff16815260200191505060405180910390f35b60008084815481106101e057fe5b90600052602060002090600a020160000160008460ff1660ff16815260200190815260200160002060008360ff1660ff16815260200190815260200160002060009054906101000a900460ff1690509392505050565b6000818154811061024357fe5b90600052602060002090600a02016000915090508060050160009054906101000a900460ff16908060050160019054906101000a900460ff16908060060154908060070154908060080154908060090154905086565b60008082815481106102a757fe5b90600052602060002090600a0201905060008160050160009054906101000a900460ff1660ff161415806102df575034816009015414155b15610352576040517f08c379a000000000000000000000000000000000000000000000000000000000815260040180806020018281038252601a8152602001807f4e6f7420656e6f7567682045746865722070726f76696465642e00000000000081525060200191505060405180910390fd5b338160020160026003811061036357fe5b0160006101000a81548173ffffffffffffffffffffffffffffffffffffffff021916908373ffffffffffffffffffffffffffffffffffffffff16021790555060028160050160006101000a81548160ff021916908360ff1602179055508060060154420181600701819055507fa7c1a70843ae25305c2e9932b44a5ea7f136f91eef037889721acd158796dbc3826040518082815260200191505060405180910390a15050565b6000805480919060010161041e9190610561565b506000806001600080549050038154811061043557fe5b90600052602060002090600a02019050338160020160016003811061045657fe5b0160006101000a81548173ffffffffffffffffffffffffffffffffffffffff021916908373ffffffffffffffffffffffffffffffffffffffff16021790555082816006018190555034816008018190555081816009018190555060018160000160006002601360ff16816104c657fe5b0460ff1660ff16815260200190815260200160002060006002601360ff16816104eb57fe5b0460ff1660ff16815260200190815260200160002060006101000a81548160ff021916908360ff1602179055507fa4bb252efaaa14c454d60c7f572e2ce4cf91a188db9122e78072b05290af7cb36001600080549050036040518082815260200191505060405180910390a1505050565b601381565b81548183558181111561058e57600a0281600a02836000526020600020918201910161058d9190610593565b5b505050565b61061891905b808211156106145760006001820160006105b3919061061b565b6002820160006105c39190610643565b6005820160006101000a81549060ff02191690556005820160016101000a81549060ff0219169055600682016000905560078201600090556008820160009055600982016000905550600a01610599565b5090565b90565b50805460008255601f0160209004906000526020600020908101906106409190610658565b50565b50600081556001016000815560010160009055565b61067a91905b8082111561067657600081600090555060010161065e565b5090565b9056fea165627a7a72305820fada854fb19b963b8bd07de8500cf9bd60726b2aeabaaa883e663f2d77f1c27a0029",
  "source": "pragma solidity ^0.5.0;\ncontract Connect6 {\n\n  uint8 constant public board_size = 19;\n\n  Game[] public games;\n\n  struct Game {\n      mapping(uint8 => mapping(uint8 => uint8)) board;\n      uint8[] move_history;\n      address[3] players;\n      // 0 means game did not start yet\n      uint8 turn;\n      // Either 1 or 2. 0 means not finished\n      uint8 winner;\n      // true if players agreed to a draw\n      uint time_per_move;\n      // if move is not made by this time, opponent can claim victory\n      uint deadline;\n      // amount player 1 put in\n      uint player_1_stake;\n      // amount player 2 must send to join\n      uint player_2_stake;\n  }\n\n  event LogGameCreated(uint game_num);\n  event LogGameStarted(uint game_num);\n  event LogVictory(uint game_num, uint8 winner);\n  event LogMoveMade(uint game_num, uint8 x1, uint8 y1, uint8 x2, uint8 y2);\n\n  function new_game(uint _time_per_move, uint opponent_stake) public payable {\n    games.length++;\n    Game storage g = games[games.length - 1];\n    g.players[1] = msg.sender;\n    g.time_per_move = _time_per_move;\n    g.player_1_stake = msg.value;\n    g.player_2_stake = opponent_stake;\n    // make the first move in the center of the board\n    g.board[board_size / 2][board_size / 2] = 1;\n    emit LogGameCreated(games.length - 1);\n  }\n  \n  function join_game(uint game_num) public payable {\n    Game storage g = games[game_num];\n    if (g.turn != 0 || g.player_2_stake != msg.value) {\n      revert(\"Not enough Ether provided.\");\n    }\n    g.players[2] = msg.sender;\n    // It's the second player's turn because the first player automatically makes a single move in the center\n    g.turn = 2;\n    g.deadline = now + g.time_per_move;\n    emit LogGameStarted(game_num);\n  }\n  \nfunction board(uint game_num, uint8 x, uint8 y) public view returns (uint8) {\n    return games[game_num].board[x][y];\n  }\n}",
  "sourcePath": "/nc/dev/dojo-dapp-connect6/contracts/Connect6.sol",
  "compiler": {
    "name": "solc",
    "version": "0.5.8+commit.23d335f2.Emscripten.clang"
  },
  "schemaVersion": "3.0.16",
  "updatedAt": "2019-11-04T15:54:08.093Z",
  "devdoc": {
    "methods": {}
  },
  "userdoc": {
    "methods": {}
  }
}