{
  "contractName": "Connect6",
  "abi": [
    {
      "constant": true,
      "inputs": [
        {
          "name": "",
          "type": "uint256"
        }
      ],
      "name": "games",
      "outputs": [
        {
          "name": "turn",
          "type": "uint8"
        },
        {
          "name": "winner",
          "type": "uint8"
        },
        {
          "name": "time_per_move",
          "type": "uint256"
        },
        {
          "name": "deadline",
          "type": "uint256"
        },
        {
          "name": "player_1_stake",
          "type": "uint256"
        },
        {
          "name": "player_2_stake",
          "type": "uint256"
        }
      ],
      "payable": false,
      "stateMutability": "view",
      "type": "function"
    },
    {
      "constant": true,
      "inputs": [],
      "name": "win_size",
      "outputs": [
        {
          "name": "",
          "type": "uint8"
        }
      ],
      "payable": false,
      "stateMutability": "view",
      "type": "function"
    },
    {
      "constant": true,
      "inputs": [],
      "name": "board_size",
      "outputs": [
        {
          "name": "",
          "type": "uint8"
        }
      ],
      "payable": false,
      "stateMutability": "view",
      "type": "function"
    },
    {
      "anonymous": false,
      "inputs": [
        {
          "indexed": false,
          "name": "game_num",
          "type": "uint256"
        }
      ],
      "name": "LogGameCreated",
      "type": "event"
    },
    {
      "anonymous": false,
      "inputs": [
        {
          "indexed": false,
          "name": "game_num",
          "type": "uint256"
        }
      ],
      "name": "LogGameStarted",
      "type": "event"
    },
    {
      "anonymous": false,
      "inputs": [
        {
          "indexed": false,
          "name": "game_num",
          "type": "uint256"
        },
        {
          "indexed": false,
          "name": "winner",
          "type": "uint8"
        }
      ],
      "name": "LogVictory",
      "type": "event"
    },
    {
      "anonymous": false,
      "inputs": [
        {
          "indexed": false,
          "name": "game_num",
          "type": "uint256"
        },
        {
          "indexed": false,
          "name": "x1",
          "type": "uint8"
        },
        {
          "indexed": false,
          "name": "y1",
          "type": "uint8"
        },
        {
          "indexed": false,
          "name": "x2",
          "type": "uint8"
        },
        {
          "indexed": false,
          "name": "y2",
          "type": "uint8"
        }
      ],
      "name": "LogMoveMade",
      "type": "event"
    },
    {
      "constant": false,
      "inputs": [
        {
          "name": "_time_per_move",
          "type": "uint256"
        },
        {
          "name": "opponent_stake",
          "type": "uint256"
        }
      ],
      "name": "new_game",
      "outputs": [],
      "payable": true,
      "stateMutability": "payable",
      "type": "function"
    },
    {
      "constant": false,
      "inputs": [
        {
          "name": "game_num",
          "type": "uint256"
        }
      ],
      "name": "join_game",
      "outputs": [],
      "payable": true,
      "stateMutability": "payable",
      "type": "function"
    },
    {
      "constant": false,
      "inputs": [
        {
          "name": "game_num",
          "type": "uint256"
        },
        {
          "name": "x1",
          "type": "uint8"
        },
        {
          "name": "y1",
          "type": "uint8"
        },
        {
          "name": "x2",
          "type": "uint8"
        },
        {
          "name": "y2",
          "type": "uint8"
        }
      ],
      "name": "make_move",
      "outputs": [],
      "payable": true,
      "stateMutability": "payable",
      "type": "function"
    },
    {
      "constant": true,
      "inputs": [
        {
          "name": "game_num",
          "type": "uint256"
        }
      ],
      "name": "fullBoard",
      "outputs": [
        {
          "name": "flattendBoard",
          "type": "uint16[361]"
        }
      ],
      "payable": false,
      "stateMutability": "view",
      "type": "function"
    },
    {
      "constant": true,
      "inputs": [
        {
          "name": "game_num",
          "type": "uint256"
        },
        {
          "name": "x",
          "type": "uint8"
        },
        {
          "name": "y",
          "type": "uint8"
        }
      ],
      "name": "board",
      "outputs": [
        {
          "name": "",
          "type": "uint8"
        }
      ],
      "payable": false,
      "stateMutability": "view",
      "type": "function"
    },
    {
      "constant": true,
      "inputs": [
        {
          "name": "game_num",
          "type": "uint256"
        },
        {
          "name": "player_num",
          "type": "uint8"
        }
      ],
      "name": "check_victory",
      "outputs": [
        {
          "name": "",
          "type": "uint8"
        }
      ],
      "payable": false,
      "stateMutability": "view",
      "type": "function"
    },
    {
      "constant": false,
      "inputs": [
        {
          "name": "game_num",
          "type": "uint256"
        }
      ],
      "name": "claim_time_victory",
      "outputs": [],
      "payable": false,
      "stateMutability": "nonpayable",
      "type": "function"
    }
  ],
  "bytecode": "0x608060405234801561001057600080fd5b5061169c806100206000396000f3fe6080604052600436106100905760003560e01c806381e082d61161005957806381e082d61461028a578063a35cfa22146102bb578063d9e7ee1c1461031d578063e0cd6eff14610355578063e6e7237f1461038657610090565b8062601d6c14610095578063117a5b90146101045780632083dcfe146101825780634a7b26ec146101e457806372becc6314610212575b600080fd5b3480156100a157600080fd5b506100e8600480360360608110156100b857600080fd5b8101908080359060200190929190803560ff169060200190929190803560ff1690602001909291905050506103c1565b604051808260ff1660ff16815260200191505060405180910390f35b34801561011057600080fd5b5061013d6004803603602081101561012757600080fd5b8101908080359060200190929190505050610425565b604051808760ff1660ff1681526020018660ff1660ff168152602001858152602001848152602001838152602001828152602001965050505050505060405180910390f35b34801561018e57600080fd5b506101c8600480360360408110156101a557600080fd5b8101908080359060200190929190803560ff169060200190929190505050610488565b604051808260ff1660ff16815260200191505060405180910390f35b610210600480360360208110156101fa57600080fd5b810190808035906020019092919050505061080b565b005b34801561021e57600080fd5b5061024b6004803603602081101561023557600080fd5b810190808035906020019092919050505061097c565b604051808261016960200280838360005b8381101561027757808201518184015260208101905061025c565b5050505090500191505060405180910390f35b34801561029657600080fd5b5061029f610a5e565b604051808260ff1660ff16815260200191505060405180910390f35b61031b600480360360a08110156102d157600080fd5b8101908080359060200190929190803560ff169060200190929190803560ff169060200190929190803560ff169060200190929190803560ff169060200190929190505050610a63565b005b6103536004803603604081101561033357600080fd5b810190808035906020019092919080359060200190929190505050610dec565b005b34801561036157600080fd5b5061036a610f3e565b604051808260ff1660ff16815260200191505060405180910390f35b34801561039257600080fd5b506103bf600480360360208110156103a957600080fd5b8101908080359060200190929190505050610f43565b005b60008084815481106103cf57fe5b906000526020600020906009020160000160008460ff1660ff16815260200190815260200160002060008360ff1660ff16815260200190815260200160002060009054906101000a900460ff1690509392505050565b6000818154811061043257fe5b90600052602060002090600902016000915090508060040160009054906101000a900460ff16908060040160019054906101000a900460ff16908060050154908060060154908060070154908060080154905086565b6000806000848154811061049857fe5b9060005260206000209060090201905060008090505b601360ff168160ff16101561056c57600080905060008090505b601360ff168160ff16101561055d578560ff168460000160008360ff1660ff16815260200190815260200160002060008560ff1660ff16815260200190815260200160002060009054906101000a900460ff1660ff161415610531578180600101925050610536565b600091505b600660ff168260ff16106105505785945050505050610805565b80806001019150506104c8565b505080806001019150506104ae565b5060008090505b601360ff168160ff16101561063157600080905060008090505b601360ff168160ff161015610622578560ff168460000160008560ff1660ff16815260200190815260200160002060008360ff1660ff16815260200190815260200160002060009054906101000a900460ff1660ff1614156105f65781806001019250506105fb565b600091505b600660ff168260ff16106106155785945050505050610805565b808060010191505061058d565b50508080600101915050610573565b5060008090505b601360ff168160ff161015610717576000809050600080905060008390505b601360ff168160ff161080156106735750601360ff168260ff16105b15610707578660ff168560000160008460ff1660ff16815260200190815260200160002060008360ff1660ff16815260200190815260200160002060009054906101000a900460ff1660ff1614156106d25782806001019350506106d7565b600092505b600660ff168360ff16106106f2578695505050505050610805565b81806001019250508080600101915050610657565b5050508080600101915050610638565b506000600190505b601360ff168160ff1610156107fe576000809050600082905060008090505b601360ff168160ff1610801561075a5750601360ff168260ff16105b156107ee578660ff168560000160008460ff1660ff16815260200190815260200160002060008360ff1660ff16815260200190815260200160002060009054906101000a900460ff1660ff1614156107b95782806001019350506107be565b600092505b600660ff168360ff16106107d9578695505050505050610805565b8180600101925050808060010191505061073e565b505050808060010191505061071f565b5060009150505b92915050565b600080828154811061081957fe5b9060005260206000209060090201905060008160040160009054906101000a900460ff1660ff16141580610851575034816008015414155b156108c4576040517f08c379a000000000000000000000000000000000000000000000000000000000815260040180806020018281038252601a8152602001807f4e6f7420656e6f7567682045746865722070726f76696465642e00000000000081525060200191505060405180910390fd5b33816001016002600381106108d557fe5b0160006101000a81548173ffffffffffffffffffffffffffffffffffffffff021916908373ffffffffffffffffffffffffffffffffffffffff16021790555060028160040160006101000a81548160ff021916908360ff1602179055508060050154420181600601819055507fa7c1a70843ae25305c2e9932b44a5ea7f136f91eef037889721acd158796dbc3826040518082815260200191505060405180910390a15050565b610984611521565b600080905060008090505b601360ff168160ff161015610a575760008090505b601360ff168160ff161015610a4957600085815481106109c057fe5b906000526020600020906009020160000160008260ff1660ff16815260200190815260200160002060008360ff1660ff16815260200190815260200160002060009054906101000a900460ff1660ff16848461ffff166101698110610a2157fe5b602002019061ffff16908161ffff1681525050828060010193505080806001019150506109a4565b50808060010191505061098f565b5050919050565b600681565b6000808681548110610a7157fe5b90600052602060002090600902019050806001018160040160009054906101000a900460ff1660ff1660038110610aa457fe5b0160009054906101000a900473ffffffffffffffffffffffffffffffffffffffff1673ffffffffffffffffffffffffffffffffffffffff163373ffffffffffffffffffffffffffffffffffffffff1614610b66576040517f08c379a00000000000000000000000000000000000000000000000000000000081526004018080602001828103825260118152602001807f67616d65206861732066696e697368656400000000000000000000000000000081525060200191505060405180910390fd5b806001018160040160009054906101000a900460ff1660ff1660038110610b8957fe5b0160009054906101000a900473ffffffffffffffffffffffffffffffffffffffff1673ffffffffffffffffffffffffffffffffffffffff163373ffffffffffffffffffffffffffffffffffffffff1614610c4b576040517f08c379a00000000000000000000000000000000000000000000000000000000081526004018080602001828103825260108152602001807f6973206e6f7420796f7572207475726e0000000000000000000000000000000081525060200191505060405180910390fd5b610c56868686611230565b610c61868484611230565b8060050154420181600601819055507ffd9177b5d9e465f56cc8079919bc8a734a3b74ec3de3de9340904e23c903d82c8686868686604051808681526020018560ff1660ff1681526020018460ff1660ff1681526020018360ff1660ff1681526020018260ff1660ff1681526020019550505050505060405180910390a16000610cfc878360040160009054906101000a900460ff16610488565b905060008160ff161115610db1578160040160009054906101000a900460ff168260040160016101000a81548160ff021916908360ff16021790555060008260040160006101000a81548160ff021916908360ff1602179055507f63ec96b7c5fed36a47de85e52dc8566f43c4b93e97ab7b1098e2f9bb97f0364d878360040160019054906101000a900460ff16604051808381526020018260ff1660ff1681526020019250505060405180910390a1610de3565b8160040160009054906101000a900460ff166003038260040160006101000a81548160ff021916908360ff1602179055505b50505050505050565b60008054809190600101610e009190611545565b5060008060016000805490500381548110610e1757fe5b906000526020600020906009020190503381600101600160038110610e3857fe5b0160006101000a81548173ffffffffffffffffffffffffffffffffffffffff021916908373ffffffffffffffffffffffffffffffffffffffff16021790555082816005018190555034816007018190555081816008018190555060018160000160006002601360ff1681610ea857fe5b0460ff1660ff16815260200190815260200160002060006002601360ff1681610ecd57fe5b0460ff1660ff16815260200190815260200160002060006101000a81548160ff021916908360ff1602179055507fa4bb252efaaa14c454d60c7f572e2ce4cf91a188db9122e78072b05290af7cb36001600080549050036040518082815260200191505060405180910390a1505050565b601381565b610f4b611577565b60008281548110610f5857fe5b90600052602060002090600902016040518060e001604052908160018201600380602002604051908101604052809291908260038015610fe3576020028201915b8160009054906101000a900473ffffffffffffffffffffffffffffffffffffffff1673ffffffffffffffffffffffffffffffffffffffff1681526020019060010190808311610f99575b505050505081526020016004820160009054906101000a900460ff1660ff1660ff1681526020016004820160019054906101000a900460ff1660ff1660ff16815260200160058201548152602001600682015481526020016007820154815260200160088201548152505090506000816040015160ff16146110cd576040517f08c379a00000000000000000000000000000000000000000000000000000000081526004018080602001828103825260148152602001807f67616d6520697320616c7265616479206f76657200000000000000000000000081525060200191505060405180910390fd5b600081608001511415611148576040517f08c379a00000000000000000000000000000000000000000000000000000000081526004018080602001828103825260158152602001807f67616d6520686173206e6f2074696d656c696d6974000000000000000000000081525060200191505060405180910390fd5b806080015142116111c1576040517f08c379a000000000000000000000000000000000000000000000000000000000815260040180806020018281038252601b8152602001807f6f70706f6e656e742074696d65206973206e6f7420757020796574000000000081525060200191505060405180910390fd5b8060200151600303816040019060ff16908160ff16815250506111e3826113f6565b7f63ec96b7c5fed36a47de85e52dc8566f43c4b93e97ab7b1098e2f9bb97f0364d828260400151604051808381526020018260ff1660ff1681526020019250505060405180910390a15050565b601360ff168260ff16118061124b5750601360ff168160ff16115b156112be576040517f08c379a00000000000000000000000000000000000000000000000000000000081526004018080602001828103825260208152602001807f506c6163696e6720646f74206f757473696465206f662074686520626f61726481525060200191505060405180910390fd5b60008084815481106112cc57fe5b9060005260206000209060090201905060008160000160008560ff1660ff16815260200190815260200160002060008460ff1660ff16815260200190815260200160002060009054906101000a900460ff1660ff1614611394576040517f08c379a00000000000000000000000000000000000000000000000000000000081526004018080602001828103825260168152602001807f506f736974696f6e20616c72656164792074616b656e0000000000000000000081525060200191505060405180910390fd5b8060040160009054906101000a900460ff168160000160008560ff1660ff16815260200190815260200160002060008460ff1660ff16815260200190815260200160002060006101000a81548160ff021916908360ff16021790555050505050565b600080828154811061140457fe5b906000526020600020906009020190506000816008015482600701540190506000811180156114a95750816001018260040160019054906101000a900460ff1660ff166003811061145157fe5b0160009054906101000a900473ffffffffffffffffffffffffffffffffffffffff1673ffffffffffffffffffffffffffffffffffffffff166108fc829081150290604051600060405180830381858888f19350505050155b1561151c576040517f08c379a00000000000000000000000000000000000000000000000000000000081526004018080602001828103825260208152602001807f726577617264207061796d656e742077617320756e7375636365737366756c6c81525060200191505060405180910390fd5b505050565b60405180612d20016040528061016990602082028038833980820191505090505090565b8154818355818111156115725760090281600902836000526020600020918201910161157191906115c1565b5b505050565b60405180610120016040528061158b611639565b8152602001600060ff168152602001600060ff168152602001600081526020016000815260200160008152602001600081525090565b61163691905b808211156116325760006001820160006115e1919061165b565b6004820160006101000a81549060ff02191690556004820160016101000a81549060ff02191690556005820160009055600682016000905560078201600090556008820160009055506009016115c7565b5090565b90565b6040518060600160405280600390602082028038833980820191505090505090565b5060008155600101600081556001016000905556fea165627a7a723058203c72d6bac85bcccbaee73fa155aa9e56b35ce02ddb008d6aa3c00ef56279af660029",
  "source": "pragma solidity ^0.5.0;\ncontract Connect6 {\n\n  uint8 constant public board_size = 19;\n  uint8 constant public win_size = 6;\n\n  Game[] public games;\n\n  struct Game {\n      mapping(uint8 => mapping(uint8 => uint8)) board;\n      address payable[3] players;\n      // 0 means game did not start yet\n      uint8 turn;\n      // Either 1 or 2. 0 means not finished\n      uint8 winner;\n      // true if players agreed to a draw\n      uint time_per_move;\n      // if move is not made by this time, opponent can claim victory\n      uint deadline;\n      // amount player 1 put in\n      uint player_1_stake;\n      // amount player 2 must send to join\n      uint player_2_stake;\n  }\n\n  event LogGameCreated(uint game_num);\n  event LogGameStarted(uint game_num);\n  event LogVictory(uint game_num, uint8 winner);\n  event LogMoveMade(uint game_num, uint8 x1, uint8 y1, uint8 x2, uint8 y2);\n\n  function new_game(uint _time_per_move, uint opponent_stake) public payable {\n    games.length++;\n    Game storage g = games[games.length - 1];\n    g.players[1] = msg.sender;\n    g.time_per_move = _time_per_move;\n    g.player_1_stake = msg.value;\n    g.player_2_stake = opponent_stake;\n    // make the first move in the center of the board\n    g.board[board_size / 2][board_size / 2] = 1;\n    emit LogGameCreated(games.length - 1);\n  }\n  \n  function join_game(uint game_num) public payable {\n    Game storage g = games[game_num];\n    if (g.turn != 0 || g.player_2_stake != msg.value) {\n      revert(\"Not enough Ether provided.\");\n    }\n    g.players[2] = msg.sender;\n    // It's the second player's turn because the first player automatically makes a single move in the center\n    g.turn = 2;\n    g.deadline = now + g.time_per_move;\n    emit LogGameStarted(game_num);\n  }\n\n  function single_move(uint game_num, uint8 x, uint8 y) internal {\n    if (x > board_size || y > board_size) {\n      revert(\"Placing dot outside of the board\");\n    }\n    Game storage g = games[game_num];\n    if (g.board[x][y] != 0) {\n      revert(\"Position already taken\");\n    }\n    g.board[x][y] = g.turn;\n  }\n\n  function make_move(uint game_num, uint8 x1, uint8 y1, uint8 x2, uint8 y2) public payable {\n    Game storage g = games[game_num];\n    if (msg.sender != g.players[g.turn]) {\n      revert(\"game has finished\");\n    }\n    if (msg.sender != g.players[g.turn]) {\n      revert(\"is not your turn\");\n    }\n    single_move(game_num, x1, y1);\n    single_move(game_num, x2, y2);\n    g.deadline = now + g.time_per_move;\n    emit LogMoveMade(game_num, x1, y1, x2, y2);\n    uint8 victor = check_victory(game_num, g.turn);\n    if (victor > 0){\n      g.winner = g.turn;\n      g.turn = 0;\n      emit LogVictory(game_num, g.winner);\n    }\n    else {\n      g.turn = 3 - g.turn;\n    }\n  }\n\nfunction fullBoard(uint game_num) public view returns (uint16[361] memory flattendBoard) {\n  //19*19=361\n  uint16 boardIndex = 0;\n  for (uint8 y = 0; y < board_size; y++) {\n    for (uint8 x = 0; x < board_size; x++) {\n      flattendBoard[boardIndex] = games[game_num].board[x][y];\n      boardIndex++;\n    }\n  }\n} \nfunction board(uint game_num, uint8 x, uint8 y) public view returns (uint8) {\n    return games[game_num].board[x][y];\n  }\n\nfunction check_victory(uint game_num, uint8 player_num) public view returns (uint8) {\n    Game storage g = games[game_num];\n    // Horizontal check\n    for (uint8 y = 0; y < board_size; y++) {\n      uint8 count = 0;\n      for (uint8 x = 0; x < board_size; x++) {\n        if (g.board[x][y]==player_num){\n          count ++;\n        }\n        else {\n            count = 0;\n        }\n        if (count >= win_size) {\n            return player_num;\n        }\n      }\n    }\n\n    // Vertical check\n    for (uint8 x = 0; x < board_size; x++) {\n      uint8 count = 0;\n      for (uint8 y = 0; y < board_size; y++) {\n        if (g.board[x][y]==player_num){\n          count ++;\n        }\n        else {\n            count = 0;\n        }\n        if (count >= win_size) {\n            return player_num;\n        }\n      }\n    }\n\n    // top-left to bottom-right - green diagonals\n    for (uint8 rowStart = 0; rowStart < board_size; rowStart++) {\n      uint8 count = 0;\n      uint8 x = 0;\n      uint8 y = rowStart;\n      while (y < board_size && x < board_size) {\n        if (g.board[x][y]==player_num){\n          count ++;\n        }\n        else {\n            count = 0;\n        }\n        if (count >= win_size) {\n            return player_num;\n        }\n        x++;\n        y++;\n      }\n    }\n\n    // top-left to bottom-right - red diagonals\n    for (uint8 colStart = 1; colStart < board_size; colStart++) {\n      uint8 count = 0;\n      uint8 x = colStart;\n      uint8 y = 0;\n      while (y < board_size && x < board_size) {\n        if (g.board[x][y]==player_num){\n          count ++;\n        }\n        else {\n            count = 0;\n        }\n        if (count >= win_size) {\n            return (player_num);\n        }\n        x++;\n        y++;\n      }\n    }\n    return 0;\n  }\n\n  function claim_time_victory(uint game_num) public {\n    Game memory g = games[game_num];\n    if (g.winner != 0) {\n      revert(\"game is already over\");\n    }\n    if (g.deadline == 0) {\n      revert(\"game has no timelimit\");\n    }\n    if (now <= g.deadline) {\n      revert(\"opponent time is not up yet\");\n    }\n    g.winner = 3 - g.turn;\n    pay_winner(game_num);\n    emit LogVictory(game_num, g.winner);\n  }\n\nfunction pay_winner(uint game_num) internal {\n    Game storage g = games[game_num];\n    uint amount = g.player_1_stake + g.player_2_stake;\n    if (amount > 0 && !g.players[g.winner].send(amount)) {\n      revert(\"reward payment was unsuccessfull\");\n    }\n  }\n}",
  "sourcePath": "/nc/dev/dojo-dapp-connect6/contracts/Connect6.sol",
  "compiler": {
    "name": "solc",
    "version": "0.5.8+commit.23d335f2.Emscripten.clang"
  },
  "schemaVersion": "3.0.16",
  "updatedAt": "2019-11-12T16:41:57.689Z",
  "devdoc": {
    "methods": {}
  },
  "userdoc": {
    "methods": {}
  }
}