{
  "contractName": "Connect6",
  "abi": [
    {
      "constant": true,
      "inputs": [
        {
          "name": "",
          "type": "uint256"
        }
      ],
      "name": "games",
      "outputs": [
        {
          "name": "player1",
          "type": "address"
        },
        {
          "name": "player2",
          "type": "address"
        },
        {
          "name": "turn",
          "type": "uint8"
        },
        {
          "name": "winner",
          "type": "uint8"
        },
        {
          "name": "timePerMove",
          "type": "uint256"
        },
        {
          "name": "deadline",
          "type": "uint256"
        },
        {
          "name": "player1Stake",
          "type": "uint256"
        },
        {
          "name": "player2Stake",
          "type": "uint256"
        }
      ],
      "payable": false,
      "stateMutability": "view",
      "type": "function"
    },
    {
      "constant": true,
      "inputs": [],
      "name": "win_size",
      "outputs": [
        {
          "name": "",
          "type": "uint8"
        }
      ],
      "payable": false,
      "stateMutability": "view",
      "type": "function"
    },
    {
      "constant": true,
      "inputs": [],
      "name": "boardSize",
      "outputs": [
        {
          "name": "",
          "type": "uint8"
        }
      ],
      "payable": false,
      "stateMutability": "view",
      "type": "function"
    },
    {
      "anonymous": false,
      "inputs": [
        {
          "indexed": false,
          "name": "gameNum",
          "type": "uint256"
        }
      ],
      "name": "LogGameCreated",
      "type": "event"
    },
    {
      "anonymous": false,
      "inputs": [
        {
          "indexed": false,
          "name": "gameNum",
          "type": "uint256"
        }
      ],
      "name": "LogGameStarted",
      "type": "event"
    },
    {
      "anonymous": false,
      "inputs": [
        {
          "indexed": false,
          "name": "gameNum",
          "type": "uint256"
        },
        {
          "indexed": false,
          "name": "winner",
          "type": "uint8"
        }
      ],
      "name": "LogVictory",
      "type": "event"
    },
    {
      "anonymous": false,
      "inputs": [
        {
          "indexed": false,
          "name": "gameNum",
          "type": "uint256"
        },
        {
          "indexed": false,
          "name": "x1",
          "type": "uint8"
        },
        {
          "indexed": false,
          "name": "y1",
          "type": "uint8"
        },
        {
          "indexed": false,
          "name": "x2",
          "type": "uint8"
        },
        {
          "indexed": false,
          "name": "y2",
          "type": "uint8"
        }
      ],
      "name": "LogMoveMade",
      "type": "event"
    },
    {
      "constant": false,
      "inputs": [
        {
          "name": "timePerMove",
          "type": "uint256"
        },
        {
          "name": "opponentStake",
          "type": "uint256"
        }
      ],
      "name": "newGame",
      "outputs": [],
      "payable": true,
      "stateMutability": "payable",
      "type": "function"
    },
    {
      "constant": false,
      "inputs": [
        {
          "name": "gameNum",
          "type": "uint256"
        }
      ],
      "name": "joinGame",
      "outputs": [],
      "payable": true,
      "stateMutability": "payable",
      "type": "function"
    },
    {
      "constant": false,
      "inputs": [
        {
          "name": "gameNum",
          "type": "uint256"
        },
        {
          "name": "x1",
          "type": "uint8"
        },
        {
          "name": "y1",
          "type": "uint8"
        },
        {
          "name": "x2",
          "type": "uint8"
        },
        {
          "name": "y2",
          "type": "uint8"
        }
      ],
      "name": "makeMove",
      "outputs": [],
      "payable": true,
      "stateMutability": "payable",
      "type": "function"
    },
    {
      "constant": true,
      "inputs": [
        {
          "name": "gameNum",
          "type": "uint256"
        }
      ],
      "name": "fullBoard",
      "outputs": [
        {
          "name": "flattendBoard",
          "type": "uint16[361]"
        }
      ],
      "payable": false,
      "stateMutability": "view",
      "type": "function"
    },
    {
      "constant": true,
      "inputs": [
        {
          "name": "gameNum",
          "type": "uint256"
        },
        {
          "name": "x",
          "type": "uint8"
        },
        {
          "name": "y",
          "type": "uint8"
        }
      ],
      "name": "board",
      "outputs": [
        {
          "name": "",
          "type": "uint8"
        }
      ],
      "payable": false,
      "stateMutability": "view",
      "type": "function"
    },
    {
      "constant": true,
      "inputs": [
        {
          "name": "gameNum",
          "type": "uint256"
        },
        {
          "name": "playerNum",
          "type": "uint8"
        }
      ],
      "name": "checkVictory",
      "outputs": [
        {
          "name": "",
          "type": "uint8"
        }
      ],
      "payable": false,
      "stateMutability": "view",
      "type": "function"
    },
    {
      "constant": false,
      "inputs": [
        {
          "name": "gameNum",
          "type": "uint256"
        }
      ],
      "name": "claimTimeVictory",
      "outputs": [],
      "payable": false,
      "stateMutability": "nonpayable",
      "type": "function"
    },
    {
      "constant": true,
      "inputs": [],
      "name": "getGameCount",
      "outputs": [
        {
          "name": "result",
          "type": "uint256"
        }
      ],
      "payable": false,
      "stateMutability": "view",
      "type": "function"
    }
  ],
  "bytecode": "0x608060405234801561001057600080fd5b506118a8806100206000396000f3fe60806040526004361061009b5760003560e01c806372becc631161006457806372becc63146102ef578063805c0ea91461036757806381e082d6146103a2578063c51d69f4146103d3578063e87c0ee614610404578063efaa55a01461042f5761009b565b8062601d6c146100a0578063117a5b901461010f5780631b05c594146101f357806334c4415d1461022b578063601d41291461028d575b600080fd5b3480156100ac57600080fd5b506100f3600480360360608110156100c357600080fd5b8101908080359060200190929190803560ff169060200190929190803560ff16906020019092919050505061045d565b604051808260ff1660ff16815260200191505060405180910390f35b34801561011b57600080fd5b506101486004803603602081101561013257600080fd5b81019080803590602001909291905050506104c1565b604051808973ffffffffffffffffffffffffffffffffffffffff1673ffffffffffffffffffffffffffffffffffffffff1681526020018873ffffffffffffffffffffffffffffffffffffffff1673ffffffffffffffffffffffffffffffffffffffff1681526020018760ff1660ff1681526020018660ff1660ff1681526020018581526020018481526020018381526020018281526020019850505050505050505060405180910390f35b6102296004803603604081101561020957600080fd5b810190808035906020019092919080359060200190929190505050610570565b005b34801561023757600080fd5b506102716004803603604081101561024e57600080fd5b8101908080359060200190929190803560ff16906020019092919050505061070d565b604051808260ff1660ff16815260200191505060405180910390f35b6102ed600480360360a08110156102a357600080fd5b8101908080359060200190929190803560ff169060200190929190803560ff169060200190929190803560ff169060200190929190803560ff169060200190929190505050610a90565b005b3480156102fb57600080fd5b506103286004803603602081101561031257600080fd5b8101908080359060200190929190505050610e29565b604051808261016960200280838360005b83811015610354578082015181840152602081019050610339565b5050505090500191505060405180910390f35b34801561037357600080fd5b506103a06004803603602081101561038a57600080fd5b8101908080359060200190929190505050610f0b565b005b3480156103ae57600080fd5b506103b761122a565b604051808260ff1660ff16815260200191505060405180910390f35b3480156103df57600080fd5b506103e861122f565b604051808260ff1660ff16815260200191505060405180910390f35b34801561041057600080fd5b50610419611234565b6040518082815260200191505060405180910390f35b61045b6004803603602081101561044557600080fd5b8101908080359060200190929190505050611244565b005b600080848154811061046b57fe5b906000526020600020906008020160000160008460ff1660ff16815260200190815260200160002060008360ff1660ff16815260200190815260200160002060009054906101000a900460ff1690509392505050565b600081815481106104ce57fe5b90600052602060002090600802016000915090508060020160009054906101000a900473ffffffffffffffffffffffffffffffffffffffff16908060030160009054906101000a900473ffffffffffffffffffffffffffffffffffffffff16908060030160149054906101000a900460ff16908060030160159054906101000a900460ff16908060040154908060050154908060060154908060070154905088565b6000805480919060010161058491906116f9565b506000806001600080549050038154811061059b57fe5b9060005260206000209060080201905033816001016000600160ff16815260200190815260200160002060006101000a81548173ffffffffffffffffffffffffffffffffffffffff021916908373ffffffffffffffffffffffffffffffffffffffff160217905550338160020160006101000a81548173ffffffffffffffffffffffffffffffffffffffff021916908373ffffffffffffffffffffffffffffffffffffffff16021790555082816004018190555034816006018190555081816007018190555060018160000160006002601360ff168161067757fe5b0460ff1660ff16815260200190815260200160002060006002601360ff168161069c57fe5b0460ff1660ff16815260200190815260200160002060006101000a81548160ff021916908360ff1602179055507fa4bb252efaaa14c454d60c7f572e2ce4cf91a188db9122e78072b05290af7cb36001600080549050036040518082815260200191505060405180910390a1505050565b6000806000848154811061071d57fe5b9060005260206000209060080201905060008090505b601360ff168160ff1610156107f157600080905060008090505b601360ff168160ff1610156107e2578560ff168460000160008360ff1660ff16815260200190815260200160002060008560ff1660ff16815260200190815260200160002060009054906101000a900460ff1660ff1614156107b65781806001019250506107bb565b600091505b600660ff168260ff16106107d55785945050505050610a8a565b808060010191505061074d565b50508080600101915050610733565b5060008090505b601360ff168160ff1610156108b657600080905060008090505b601360ff168160ff1610156108a7578560ff168460000160008560ff1660ff16815260200190815260200160002060008360ff1660ff16815260200190815260200160002060009054906101000a900460ff1660ff16141561087b578180600101925050610880565b600091505b600660ff168260ff161061089a5785945050505050610a8a565b8080600101915050610812565b505080806001019150506107f8565b5060008090505b601360ff168160ff16101561099c576000809050600080905060008390505b601360ff168160ff161080156108f85750601360ff168260ff16105b1561098c578660ff168560000160008460ff1660ff16815260200190815260200160002060008360ff1660ff16815260200190815260200160002060009054906101000a900460ff1660ff16141561095757828060010193505061095c565b600092505b600660ff168360ff1610610977578695505050505050610a8a565b818060010192505080806001019150506108dc565b50505080806001019150506108bd565b506000600190505b601360ff168160ff161015610a83576000809050600082905060008090505b601360ff168160ff161080156109df5750601360ff168260ff16105b15610a73578660ff168560000160008460ff1660ff16815260200190815260200160002060008360ff1660ff16815260200190815260200160002060009054906101000a900460ff1660ff161415610a3e578280600101935050610a43565b600092505b600660ff168360ff1610610a5e578695505050505050610a8a565b818060010192505080806001019150506109c3565b50505080806001019150506109a4565b5060009150505b92915050565b6000808681548110610a9e57fe5b906000526020600020906008020190508060010160008260030160149054906101000a900460ff1660ff1660ff16815260200190815260200160002060009054906101000a900473ffffffffffffffffffffffffffffffffffffffff1673ffffffffffffffffffffffffffffffffffffffff163373ffffffffffffffffffffffffffffffffffffffff1614610b9b576040517f08c379a00000000000000000000000000000000000000000000000000000000081526004018080602001828103825260118152602001807f67616d65206861732066696e697368656400000000000000000000000000000081525060200191505060405180910390fd5b8060010160008260030160149054906101000a900460ff1660ff1660ff16815260200190815260200160002060009054906101000a900473ffffffffffffffffffffffffffffffffffffffff1673ffffffffffffffffffffffffffffffffffffffff163373ffffffffffffffffffffffffffffffffffffffff1614610c88576040517f08c379a00000000000000000000000000000000000000000000000000000000081526004018080602001828103825260108152602001807f6973206e6f7420796f7572207475726e0000000000000000000000000000000081525060200191505060405180910390fd5b610c93868686611400565b610c9e868484611400565b8060040154420181600501819055507ffd9177b5d9e465f56cc8079919bc8a734a3b74ec3de3de9340904e23c903d82c8686868686604051808681526020018560ff1660ff1681526020018460ff1660ff1681526020018360ff1660ff1681526020018260ff1660ff1681526020019550505050505060405180910390a16000610d39878360030160149054906101000a900460ff1661070d565b905060008160ff161115610dee578160030160149054906101000a900460ff168260030160156101000a81548160ff021916908360ff16021790555060008260030160146101000a81548160ff021916908360ff1602179055507f63ec96b7c5fed36a47de85e52dc8566f43c4b93e97ab7b1098e2f9bb97f0364d878360030160159054906101000a900460ff16604051808381526020018260ff1660ff1681526020019250505060405180910390a1610e20565b8160030160149054906101000a900460ff166003038260030160146101000a81548160ff021916908360ff1602179055505b50505050505050565b610e3161172b565b600080905060008090505b601360ff168160ff161015610f045760008090505b601360ff168160ff161015610ef65760008581548110610e6d57fe5b906000526020600020906008020160000160008260ff1660ff16815260200190815260200160002060008360ff1660ff16815260200190815260200160002060009054906101000a900460ff1660ff16848461ffff166101698110610ece57fe5b602002019061ffff16908161ffff168152505082806001019350508080600101915050610e51565b508080600101915050610e3c565b5050919050565b610f1361174f565b60008281548110610f2057fe5b9060005260206000209060080201604051806101000160405290816002820160009054906101000a900473ffffffffffffffffffffffffffffffffffffffff1673ffffffffffffffffffffffffffffffffffffffff1673ffffffffffffffffffffffffffffffffffffffff1681526020016003820160009054906101000a900473ffffffffffffffffffffffffffffffffffffffff1673ffffffffffffffffffffffffffffffffffffffff1673ffffffffffffffffffffffffffffffffffffffff1681526020016003820160149054906101000a900460ff1660ff1660ff1681526020016003820160159054906101000a900460ff1660ff1660ff16815260200160048201548152602001600582015481526020016006820154815260200160078201548152505090506000816060015160ff16146110c7576040517f08c379a00000000000000000000000000000000000000000000000000000000081526004018080602001828103825260148152602001807f67616d6520697320616c7265616479206f76657200000000000000000000000081525060200191505060405180910390fd5b60008160a001511415611142576040517f08c379a00000000000000000000000000000000000000000000000000000000081526004018080602001828103825260158152602001807f67616d6520686173206e6f2074696d656c696d6974000000000000000000000081525060200191505060405180910390fd5b8060a0015142116111bb576040517f08c379a000000000000000000000000000000000000000000000000000000000815260040180806020018281038252601b8152602001807f6f70706f6e656e742074696d65206973206e6f7420757020796574000000000081525060200191505060405180910390fd5b8060400151600303816060019060ff16908160ff16815250506111dd826115c6565b7f63ec96b7c5fed36a47de85e52dc8566f43c4b93e97ab7b1098e2f9bb97f0364d828260600151604051808381526020018260ff1660ff1681526020019250505060405180910390a15050565b600681565b601381565b6000600160008054905003905090565b600080828154811061125257fe5b9060005260206000209060080201905060008160030160149054906101000a900460ff1660ff1614158061128a575034816007015414155b156112fd576040517f08c379a000000000000000000000000000000000000000000000000000000000815260040180806020018281038252601a8152602001807f4e6f7420656e6f7567682045746865722070726f76696465642e00000000000081525060200191505060405180910390fd5b33816001016000600260ff16815260200190815260200160002060006101000a81548173ffffffffffffffffffffffffffffffffffffffff021916908373ffffffffffffffffffffffffffffffffffffffff160217905550338160030160006101000a81548173ffffffffffffffffffffffffffffffffffffffff021916908373ffffffffffffffffffffffffffffffffffffffff16021790555060028160030160146101000a81548160ff021916908360ff1602179055508060040154420181600501819055507fa7c1a70843ae25305c2e9932b44a5ea7f136f91eef037889721acd158796dbc3826040518082815260200191505060405180910390a15050565b601360ff168260ff16118061141b5750601360ff168160ff16115b1561148e576040517f08c379a00000000000000000000000000000000000000000000000000000000081526004018080602001828103825260208152602001807f506c6163696e6720646f74206f757473696465206f662074686520626f61726481525060200191505060405180910390fd5b600080848154811061149c57fe5b9060005260206000209060080201905060008160000160008560ff1660ff16815260200190815260200160002060008460ff1660ff16815260200190815260200160002060009054906101000a900460ff1660ff1614611564576040517f08c379a00000000000000000000000000000000000000000000000000000000081526004018080602001828103825260168152602001807f506f736974696f6e20616c72656164792074616b656e0000000000000000000081525060200191505060405180910390fd5b8060030160149054906101000a900460ff168160000160008560ff1660ff16815260200190815260200160002060008460ff1660ff16815260200190815260200160002060006101000a81548160ff021916908360ff16021790555050505050565b60008082815481106115d457fe5b9060005260206000209060080201905060008160070154826006015401905060008111801561168157508160010160008360030160159054906101000a900460ff1660ff1660ff16815260200190815260200160002060009054906101000a900473ffffffffffffffffffffffffffffffffffffffff1673ffffffffffffffffffffffffffffffffffffffff166108fc829081150290604051600060405180830381858888f19350505050155b156116f4576040517f08c379a00000000000000000000000000000000000000000000000000000000081526004018080602001828103825260208152602001807f726577617264207061796d656e742077617320756e7375636365737366756c6c81525060200191505060405180910390fd5b505050565b8154818355818111156117265760080281600802836000526020600020918201910161172591906117c6565b5b505050565b60405180612d20016040528061016990602082028038833980820191505090505090565b604051806101000160405280600073ffffffffffffffffffffffffffffffffffffffff168152602001600073ffffffffffffffffffffffffffffffffffffffff168152602001600060ff168152602001600060ff168152602001600081526020016000815260200160008152602001600081525090565b61187991905b808211156118755760006002820160006101000a81549073ffffffffffffffffffffffffffffffffffffffff02191690556003820160006101000a81549073ffffffffffffffffffffffffffffffffffffffff02191690556003820160146101000a81549060ff02191690556003820160156101000a81549060ff02191690556004820160009055600582016000905560068201600090556007820160009055506008016117cc565b5090565b9056fea165627a7a723058202d95f9e073c6d281981f4dd96e96ec0640fbb909b99ac7d791fb3d7cda45b3300029",
  "source": "pragma solidity ^0.5.0;\ncontract Connect6 {\n\n  uint8 constant public boardSize = 19;\n  uint8 constant public win_size = 6;\n\n  Game[] public games;\n\n  struct Game {\n      mapping(uint8 => mapping(uint8 => uint8)) board;\n      //address payable[3] players;\n      mapping(uint8 => address payable) players;\n      address player1;\n      address player2;\n      // 0 means game did not start yet\n      uint8 turn;\n      // Either 1 or 2. 0 means not finished\n      uint8 winner;\n      // true if players agreed to a draw\n      uint timePerMove;\n      // if move is not made by this time, opponent can claim victory\n      uint deadline;\n      // amount player 1 put in\n      uint player1Stake;\n      // amount player 2 must send to join\n      uint player2Stake;\n  }\n\n  event LogGameCreated(uint gameNum);\n  event LogGameStarted(uint gameNum);\n  event LogVictory(uint gameNum, uint8 winner);\n  event LogMoveMade(uint gameNum, uint8 x1, uint8 y1, uint8 x2, uint8 y2);\n\n  function newGame(uint timePerMove, uint opponentStake) public payable {\n    games.length++;\n    Game storage g = games[games.length - 1];\n    g.players[1] = msg.sender;\n    g.player1 = msg.sender;\n    g.timePerMove = timePerMove;\n    g.player1Stake = msg.value;\n    g.player2Stake = opponentStake;\n    // make the first move in the center of the board\n    g.board[boardSize / 2][boardSize / 2] = 1;\n    emit LogGameCreated(games.length - 1);\n  }\n  \n  function joinGame(uint gameNum) public payable {\n    Game storage g = games[gameNum];\n    if (g.turn != 0 || g.player2Stake != msg.value) {\n      revert(\"Not enough Ether provided.\");\n    }\n    g.players[2] = msg.sender;\n    g.player2 = msg.sender;\n    // It's the second player's turn because the first player automatically makes a single move in the center\n    g.turn = 2;\n    g.deadline = now + g.timePerMove;\n    emit LogGameStarted(gameNum);\n  }\n\n  function singleMove(uint gameNum, uint8 x, uint8 y) internal {\n    if (x > boardSize || y > boardSize) {\n      revert(\"Placing dot outside of the board\");\n    }\n    Game storage g = games[gameNum];\n    if (g.board[x][y] != 0) {\n      revert(\"Position already taken\");\n    }\n    g.board[x][y] = g.turn;\n  }\n\n  function makeMove(uint gameNum, uint8 x1, uint8 y1, uint8 x2, uint8 y2) public payable {\n    Game storage g = games[gameNum];\n    if (msg.sender != g.players[g.turn]) {\n      revert(\"game has finished\");\n    }\n    if (msg.sender != g.players[g.turn]) {\n      revert(\"is not your turn\");\n    }\n    singleMove(gameNum, x1, y1);\n    singleMove(gameNum, x2, y2);\n    g.deadline = now + g.timePerMove;\n    emit LogMoveMade(gameNum, x1, y1, x2, y2);\n    uint8 victor = checkVictory(gameNum, g.turn);\n    if (victor > 0){\n      g.winner = g.turn;\n      g.turn = 0;\n      emit LogVictory(gameNum, g.winner);\n    }\n    else {\n      g.turn = 3 - g.turn;\n    }\n  }\n\nfunction fullBoard(uint gameNum) public view returns (uint16[361] memory flattendBoard) {\n  //19*19=361\n  uint16 boardIndex = 0;\n  for (uint8 y = 0; y < boardSize; y++) {\n    for (uint8 x = 0; x < boardSize; x++) {\n      flattendBoard[boardIndex] = games[gameNum].board[x][y];\n      boardIndex++;\n    }\n  }\n}\n\nfunction board(uint gameNum, uint8 x, uint8 y) public view returns (uint8) {\n    return games[gameNum].board[x][y];\n  }\n\nfunction checkVictory(uint gameNum, uint8 playerNum) public view returns (uint8) {\n    Game storage g = games[gameNum];\n    // Horizontal check\n    for (uint8 y = 0; y < boardSize; y++) {\n      uint8 count = 0;\n      for (uint8 x = 0; x < boardSize; x++) {\n        if (g.board[x][y]==playerNum){\n          count ++;\n        }\n        else {\n            count = 0;\n        }\n        if (count >= win_size) {\n            return playerNum;\n        }\n      }\n    }\n\n    // Vertical check\n    for (uint8 x = 0; x < boardSize; x++) {\n      uint8 count = 0;\n      for (uint8 y = 0; y < boardSize; y++) {\n        if (g.board[x][y]==playerNum){\n          count ++;\n        }\n        else {\n            count = 0;\n        }\n        if (count >= win_size) {\n            return playerNum;\n        }\n      }\n    }\n\n    // top-left to bottom-right - green diagonals\n    for (uint8 rowStart = 0; rowStart < boardSize; rowStart++) {\n      uint8 count = 0;\n      uint8 x = 0;\n      uint8 y = rowStart;\n      while (y < boardSize && x < boardSize) {\n        if (g.board[x][y]==playerNum){\n          count ++;\n        }\n        else {\n            count = 0;\n        }\n        if (count >= win_size) {\n            return playerNum;\n        }\n        x++;\n        y++;\n      }\n    }\n\n    // top-left to bottom-right - red diagonals\n    for (uint8 colStart = 1; colStart < boardSize; colStart++) {\n      uint8 count = 0;\n      uint8 x = colStart;\n      uint8 y = 0;\n      while (y < boardSize && x < boardSize) {\n        if (g.board[x][y]==playerNum){\n          count ++;\n        }\n        else {\n            count = 0;\n        }\n        if (count >= win_size) {\n            return (playerNum);\n        }\n        x++;\n        y++;\n      }\n    }\n    return 0;\n  }\n\n  function claimTimeVictory(uint gameNum) public {\n    Game memory g = games[gameNum];\n    if (g.winner != 0) {\n      revert(\"game is already over\");\n    }\n    if (g.deadline == 0) {\n      revert(\"game has no timelimit\");\n    }\n    if (now <= g.deadline) {\n      revert(\"opponent time is not up yet\");\n    }\n    g.winner = 3 - g.turn;\n    payWinner(gameNum);\n    emit LogVictory(gameNum, g.winner);\n  }\n\n  function payWinner(uint gameNum) internal {\n    Game storage g = games[gameNum];\n    uint amount = g.player1Stake + g.player2Stake;\n    if (amount > 0 && !g.players[g.winner].send(amount)) {\n      revert(\"reward payment was unsuccessfull\");\n    }\n  }\n\n  function getGameCount() public view returns(uint result){\n      result = games.length - 1;\n  }\n}",
  "sourcePath": "/nc/dev/dojo-dapp-connect6/contracts/Connect6.sol",
  "compiler": {
    "name": "solc",
    "version": "0.5.8+commit.23d335f2.Emscripten.clang"
  },
  "schemaVersion": "3.0.16",
  "updatedAt": "2019-12-04T05:30:16.256Z",
  "devdoc": {
    "methods": {}
  },
  "userdoc": {
    "methods": {}
  }
}