{
  "contractName": "Connect6",
  "abi": [
    {
      "constant": true,
      "inputs": [
        {
          "name": "",
          "type": "uint256"
        }
      ],
      "name": "games",
      "outputs": [
        {
          "name": "turn",
          "type": "uint8"
        },
        {
          "name": "winner",
          "type": "uint8"
        },
        {
          "name": "time_per_move",
          "type": "uint256"
        },
        {
          "name": "deadline",
          "type": "uint256"
        },
        {
          "name": "player_1_stake",
          "type": "uint256"
        },
        {
          "name": "player_2_stake",
          "type": "uint256"
        }
      ],
      "payable": false,
      "stateMutability": "view",
      "type": "function"
    },
    {
      "constant": true,
      "inputs": [],
      "name": "board_size",
      "outputs": [
        {
          "name": "",
          "type": "uint8"
        }
      ],
      "payable": false,
      "stateMutability": "view",
      "type": "function"
    },
    {
      "anonymous": false,
      "inputs": [
        {
          "indexed": false,
          "name": "game_num",
          "type": "uint256"
        }
      ],
      "name": "LogGameCreated",
      "type": "event"
    },
    {
      "anonymous": false,
      "inputs": [
        {
          "indexed": false,
          "name": "game_num",
          "type": "uint256"
        }
      ],
      "name": "LogGameStarted",
      "type": "event"
    },
    {
      "anonymous": false,
      "inputs": [
        {
          "indexed": false,
          "name": "game_num",
          "type": "uint256"
        },
        {
          "indexed": false,
          "name": "winner",
          "type": "uint8"
        }
      ],
      "name": "LogVictory",
      "type": "event"
    },
    {
      "anonymous": false,
      "inputs": [
        {
          "indexed": false,
          "name": "game_num",
          "type": "uint256"
        },
        {
          "indexed": false,
          "name": "x1",
          "type": "uint8"
        },
        {
          "indexed": false,
          "name": "y1",
          "type": "uint8"
        },
        {
          "indexed": false,
          "name": "x2",
          "type": "uint8"
        },
        {
          "indexed": false,
          "name": "y2",
          "type": "uint8"
        }
      ],
      "name": "LogMoveMade",
      "type": "event"
    },
    {
      "constant": false,
      "inputs": [
        {
          "name": "_time_per_move",
          "type": "uint256"
        },
        {
          "name": "opponent_stake",
          "type": "uint256"
        }
      ],
      "name": "new_game",
      "outputs": [],
      "payable": true,
      "stateMutability": "payable",
      "type": "function"
    },
    {
      "constant": false,
      "inputs": [
        {
          "name": "game_num",
          "type": "uint256"
        }
      ],
      "name": "join_game",
      "outputs": [],
      "payable": true,
      "stateMutability": "payable",
      "type": "function"
    },
    {
      "constant": true,
      "inputs": [
        {
          "name": "game_num",
          "type": "uint256"
        }
      ],
      "name": "fullBoard",
      "outputs": [
        {
          "name": "flattendBoard",
          "type": "uint8[361]"
        }
      ],
      "payable": false,
      "stateMutability": "view",
      "type": "function"
    },
    {
      "constant": true,
      "inputs": [
        {
          "name": "game_num",
          "type": "uint256"
        },
        {
          "name": "x",
          "type": "uint8"
        },
        {
          "name": "y",
          "type": "uint8"
        }
      ],
      "name": "board",
      "outputs": [
        {
          "name": "",
          "type": "uint8"
        }
      ],
      "payable": false,
      "stateMutability": "view",
      "type": "function"
    }
  ],
  "bytecode": "0x608060405234801561001057600080fd5b50610826806100206000396000f3fe6080604052600436106100545760003560e01c8062601d6c14610059578063117a5b90146100c85780634a7b26ec1461014657806372becc6314610174578063d9e7ee1c146101ec578063e0cd6eff14610224575b600080fd5b34801561006557600080fd5b506100ac6004803603606081101561007c57600080fd5b8101908080359060200190929190803560ff169060200190929190803560ff169060200190929190505050610255565b604051808260ff1660ff16815260200191505060405180910390f35b3480156100d457600080fd5b50610101600480360360208110156100eb57600080fd5b81019080803590602001909291905050506102b9565b604051808760ff1660ff1681526020018660ff1660ff168152602001858152602001848152602001838152602001828152602001965050505050505060405180910390f35b6101726004803603602081101561015c57600080fd5b810190808035906020019092919050505061031c565b005b34801561018057600080fd5b506101ad6004803603602081101561019757600080fd5b810190808035906020019092919050505061048d565b604051808261016960200280838360005b838110156101d95780820151818401526020810190506101be565b5050505090500191505060405180910390f35b6102226004803603604081101561020257600080fd5b810190808035906020019092919080359060200190929190505050610563565b005b34801561023057600080fd5b506102396106b5565b604051808260ff1660ff16815260200191505060405180910390f35b600080848154811061026357fe5b90600052602060002090600a020160000160008460ff1660ff16815260200190815260200160002060008360ff1660ff16815260200190815260200160002060009054906101000a900460ff1690509392505050565b600081815481106102c657fe5b90600052602060002090600a02016000915090508060050160009054906101000a900460ff16908060050160019054906101000a900460ff16908060060154908060070154908060080154908060090154905086565b600080828154811061032a57fe5b90600052602060002090600a0201905060008160050160009054906101000a900460ff1660ff16141580610362575034816009015414155b156103d5576040517f08c379a000000000000000000000000000000000000000000000000000000000815260040180806020018281038252601a8152602001807f4e6f7420656e6f7567682045746865722070726f76696465642e00000000000081525060200191505060405180910390fd5b33816002016002600381106103e657fe5b0160006101000a81548173ffffffffffffffffffffffffffffffffffffffff021916908373ffffffffffffffffffffffffffffffffffffffff16021790555060028160050160006101000a81548160ff021916908360ff1602179055508060060154420181600701819055507fa7c1a70843ae25305c2e9932b44a5ea7f136f91eef037889721acd158796dbc3826040518082815260200191505060405180910390a15050565b6104956106ba565b600080905060008090505b60138160ff16101561055c5760008090505b60138160ff16101561054e57600085815481106104cb57fe5b90600052602060002090600a020160000160008360ff1660ff16815260200190815260200160002060008260ff1660ff16815260200190815260200160002060009054906101000a900460ff16848460ff16610169811061052857fe5b602002019060ff16908160ff1681525050828060010193505080806001019150506104b2565b5080806001019150506104a0565b5050919050565b6000805480919060010161057791906106de565b506000806001600080549050038154811061058e57fe5b90600052602060002090600a0201905033816002016001600381106105af57fe5b0160006101000a81548173ffffffffffffffffffffffffffffffffffffffff021916908373ffffffffffffffffffffffffffffffffffffffff16021790555082816006018190555034816008018190555081816009018190555060018160000160006002601360ff168161061f57fe5b0460ff1660ff16815260200190815260200160002060006002601360ff168161064457fe5b0460ff1660ff16815260200190815260200160002060006101000a81548160ff021916908360ff1602179055507fa4bb252efaaa14c454d60c7f572e2ce4cf91a188db9122e78072b05290af7cb36001600080549050036040518082815260200191505060405180910390a1505050565b601381565b60405180612d20016040528061016990602082028038833980820191505090505090565b81548183558181111561070b57600a0281600a02836000526020600020918201910161070a9190610710565b5b505050565b61079591905b808211156107915760006001820160006107309190610798565b60028201600061074091906107c0565b6005820160006101000a81549060ff02191690556005820160016101000a81549060ff0219169055600682016000905560078201600090556008820160009055600982016000905550600a01610716565b5090565b90565b50805460008255601f0160209004906000526020600020908101906107bd91906107d5565b50565b50600081556001016000815560010160009055565b6107f791905b808211156107f35760008160009055506001016107db565b5090565b9056fea165627a7a72305820fe37ea18b0283145d95f52f4d301632fa717fca61b95a7e228727a235e8870e90029",
  "source": "pragma solidity ^0.5.0;\ncontract Connect6 {\n\n  uint8 constant public board_size = 19;\n\n  Game[] public games;\n\n  struct Game {\n      mapping(uint8 => mapping(uint8 => uint8)) board;\n      uint8[] move_history;\n      address[3] players;\n      // 0 means game did not start yet\n      uint8 turn;\n      // Either 1 or 2. 0 means not finished\n      uint8 winner;\n      // true if players agreed to a draw\n      uint time_per_move;\n      // if move is not made by this time, opponent can claim victory\n      uint deadline;\n      // amount player 1 put in\n      uint player_1_stake;\n      // amount player 2 must send to join\n      uint player_2_stake;\n  }\n\n  event LogGameCreated(uint game_num);\n  event LogGameStarted(uint game_num);\n  event LogVictory(uint game_num, uint8 winner);\n  event LogMoveMade(uint game_num, uint8 x1, uint8 y1, uint8 x2, uint8 y2);\n\n  function new_game(uint _time_per_move, uint opponent_stake) public payable {\n    games.length++;\n    Game storage g = games[games.length - 1];\n    g.players[1] = msg.sender;\n    g.time_per_move = _time_per_move;\n    g.player_1_stake = msg.value;\n    g.player_2_stake = opponent_stake;\n    // make the first move in the center of the board\n    g.board[board_size / 2][board_size / 2] = 1;\n    emit LogGameCreated(games.length - 1);\n  }\n  \n  function join_game(uint game_num) public payable {\n    Game storage g = games[game_num];\n    if (g.turn != 0 || g.player_2_stake != msg.value) {\n      revert(\"Not enough Ether provided.\");\n    }\n    g.players[2] = msg.sender;\n    // It's the second player's turn because the first player automatically makes a single move in the center\n    g.turn = 2;\n    g.deadline = now + g.time_per_move;\n    emit LogGameStarted(game_num);\n  }\n  \n\nfunction fullBoard(uint game_num) public view returns (uint8[361] memory flattendBoard) {\n  //19*19=361+1\n  uint8 boardIndex = 0;\n  for (uint8 i = 0; i < 19; i++) {\n    for (uint8 j = 0; j < 19; j++) {\n      flattendBoard[boardIndex] = games[game_num].board[i][j];\n      boardIndex++;\n    }\n  }\n} \nfunction board(uint game_num, uint8 x, uint8 y) public view returns (uint8) {\n    return games[game_num].board[x][y];\n  }\n}",
  "sourcePath": "/nc/dev/dojo-dapp-connect6/contracts/Connect6.sol",
  "compiler": {
    "name": "solc",
    "version": "0.5.8+commit.23d335f2.Emscripten.clang"
  },
  "schemaVersion": "3.0.16",
  "updatedAt": "2019-11-05T12:05:21.135Z",
  "devdoc": {
    "methods": {}
  },
  "userdoc": {
    "methods": {}
  }
}